:100000000C9434000C9451000C9451000C94510049
:100010000C9429020C9451000C9451000C94510042
:100020000C9451000C9451000C9451000C9451000C
:100030000C9451000C9451000C9451000C945100FC
:100040000C9427030C9451000C9451000C94510013
:100050000C9451000C9451000C9451000C945100DC
:100060000C9451000C94510011241FBECFEFD8E026
:10007000DEBFCDBF21E0AEECB1E001C01D92AF3DCF
:10008000B207E1F711E0A0E0B1E0ECE6F7E102C071
:1000900005900D92AE3CB107D9F70E948E030C94E7
:1000A000B40B0C94000027E030E090E0AC01022E8D
:1000B00002C0559547950A94E2F740FF07C0289A79
:1000C0005F9A5F982150310988F708952898F8CFF2
:1000D0005C988FEF0E94530088EF0E9453005C9A57
:1000E00008954F925F926F927F928F929F92AF92FC
:1000F000BF92CF92DF92EF92FF920F931F93CF9315
:10010000DF93CDB7DEB76A970FB6F894DEBF0FBEA8
:10011000CDBF69017A019B01AC0160E074E284E724
:1001200099E40E946F050E94E10569877A878B87B1
:100130009C87A8EEB3E0A70196010E945C076D8B37
:100140007E8B8F8B988F29853A854B855C8556955C
:10015000479537952795298B3A8B4B8B5C8B19826A
:100160001A821B821C8200E911E029813A814B81AD
:100170005C818D899E89AF89B88D281739074A0718
:100180005B07B8F06A960FB6F894DEBF0FBECDBF1E
:10019000DF91CF911F910F91FF90EF90DF90CF9063
:1001A000BF90AF909F908F907F906F905F904F9097
:1001B00008955B9869897A898B899C890E941006C9
:1001C0002B013C012BEA3AEA4AEA50E40E94C706B6
:1001D0006B017C0120E030E040E850E4C301B20153
:1001E0000E94C7064B015C0120E030E040E85FE37D
:1001F000C701B6010E946A0587FDC0C020E03FEF3D
:100200004FE757E4C501B4010E94C20618160CF06E
:1002100051C020E030E04AE754E4C301B2010E943B
:100220006F056D877E878F87988B20E030E04AE7E7
:1002300055E40E94C7066D837E838F83988720E0F4
:1002400030E040E85FE30E946A0587FD30C020E0AF
:100250003FEF4FE757E46D817E818F8198850E9443
:10026000C2061816D4F420E030E040E251E46D8577
:100270007E858F8598890E94C7060E94E1056115D9
:10028000710529F44A8D4A95F1F74A8F25C0C801B6
:100290000197F1F761507109F2CF6D817E818F81F5
:1002A00098850E94E105CB010197F1F7EBCF61E062
:1002B00070E0F9CF20E030E04FE753E4C701B6012A
:1002C0000E94C20618160CF053C0C501B4010E946A
:1002D000E105CB010197F1F75B9A20E030E040E8BF
:1002E0005FE3C701B6010E946A0587FD83C020E075
:1002F0003FEF4FE757E4C501B4010E94C20618164C
:100300000CF050C020E030E04AE754E4C301B201F1
:100310000E946F054B015C0120E030E04AE755E4A4
:100320000E94C7066B017C0120E030E040E85FE3FB
:100330000E946A0587FD33C020E03FEF4FE757E496
:10034000C701B6010E94C20618160CF520E030E085
:1003500040E251E4C501B4010E94C7060E94E105D4
:100360006115710571F4898D8A95F1F7898F2BC01C
:10037000C701B6010E94E1056A8F84CF31E03A8F50
:1003800081CFC8010197F1F761507109E9CFC70129
:10039000B6010E94E105CB010197F1F7E4CF61E0DE
:1003A00070E0F9CF20E030E04FE753E4C701B60139
:1003B0000E94C2061816C4F4C501B4010E94E105EA
:1003C000CB010197F1F729813A814B815C818985C5
:1003D0009A85AB85BC85280F391F4A1F5B1F29836F
:1003E0003A834B835C83C1CEC701B6010E94E1050D
:1003F000698FB9CF51E0598FB6CF26B130E0019661
:10040000A90102C0559547958A95E2F7CA018095E2
:100410009095817099270895CF93C82F5C98E62F07
:10042000F0E0EE5BFE4F80810E945300EC2FF0E085
:10043000E45BFE4F80810E9453005C9ACF91089547
:100440009091C00095FFFCCF8093C60090E080E0C3
:1004500008951F920F920FB60F9211248F929F92C0
:10046000AF92BF92CF92DF92EF92FF920F931F93C2
:100470002F933F934F935F936F937F938F939F93AC
:10048000AF93BF93EF93FF93CF93DF93CDB7DEB7D7
:100490006297DEBFCDBF8091D20181119EC08CE0FA
:1004A000E0E3F1E0DE01119601900D928A95E1F70B
:1004B00086E0ECE3F1E0DE011D9601900D928A9555
:1004C000E1F76E018DE0C80ED11C8E010F5F1F4F4A
:1004D00082E0E82EF12CAA24A394B12C20E9822EEC
:1004E0009924939485B195010E2C01C0220F0A9492
:1004F000EAF7822B85B9539A229A239A249A259A4D
:10050000F601219131916F01F80161917191819111
:1005100091918F01032E000C440B550B0E9471002A
:1005200080E797E1F4013197F1F70197D9F7FFEFF1
:10053000EF1AFF0A85E0E816F104A1F62D9A8AEC7D
:1005400091E00E94D40890E080E00E94FD01892B98
:1005500031F081E090E090930F0180930E0190E0E4
:1005600080E00E94FD01892BD1F781E090E00E949C
:10057000FD01892B31F08FEF9FEF90930F01809356
:100580000E0190E080E00E94FD01892BD1F781E00F
:100590008093D20162960FB6F894DEBF0FBECDBF36
:1005A000DF91CF91FF91EF91BF91AF919F918F918B
:1005B0007F916F915F914F913F912F911F910F917B
:1005C000FF90EF90DF90CF90BF90AF909F908F9073
:1005D0000F900FBE0F901F90189590E080E00E9442
:1005E000FD01892BB1F080911001909111010597C7
:1005F00084F481E090E090930F0180930E01E091EC
:10060000CE01F091CF018081918101969183808309
:10061000C1CF81E090E00E94FD01892B09F4BACF9F
:10062000809110019091110185970CF4B3CF8FEF59
:100630009FEF90930F0180930E01E091CE01F09116
:10064000CF0182819381019693838283A3CF1F92EE
:100650000F920FB60F9211240F931F932F933F9376
:100660004F935F936F937F938F939F93AF93BF93BA
:10067000CF93DF93EF93FF9380917A008064809310
:100680007A0080917A0086FDFCCF8091780090916D
:1006900079000AE010E0B8010E94340724E6289FA0
:1006A000E001299FD00D1124D695C795D093D40190
:1006B000C093D30160E080E00E940C02CE0164E6AA
:1006C00070E00E94480781E00E940C02CE01B80150
:1006D0000E944807C82FCB01B8010E944807682F25
:1006E00082E00E940C026C2F83E00E940C020E94A8
:1006F0006800FF91EF91DF91CF91BF91AF919F91F2
:100700008F917F916F915F914F913F912F911F91A9
:100710000F910F900FBE0F901F9018952F923F9240
:100720004F925F926F927F928F929F92AF92BF9201
:10073000CF92DF92EF92FF920F931F93CF93DF93AD
:10074000CDB7DEB769970FB6F894DEBF0FBECDBF49
:1007500080917C00806480937C0080917A00876027
:1007600080937A0080917A00806880937A0010925A
:10077000C50087E68093C4008091C0008D7F809380
:10078000C00088E18093C10086E08093C20080E0D1
:1007900091E09093D8018093D701549A579A209A68
:1007A0000E94680084B5836084BD85B5836085BD83
:1007B00080916E00816080936E003998419A3A98DA
:1007C000429A8091680082608093680080916C00FA
:1007D000826080936C0080916800846080936800E0
:1007E00080916C00846080936C0062E070E082E035
:1007F00090E00E9476079093CF018093CE010097FE
:1008000081F0FC0111821082138212828BE290E04F
:100810000E9492078C019093D1018093D0010097A0
:1008200051F480E591E09F938F930E94BE0881E090
:1008300090E00E94B40B49E250E06DE270E00E944B
:10084000B7088BE5F80180838DE581A712A678941F
:100850008AE691E09F938F930E94BE080F900F90BD
:10086000912C2AE0622E712C00E21EE430E9A32EC6
:10087000BB24B3942091D201298F211129C0992042
:10088000C9F38091D0019091D1010E942E088091EE
:10089000CE019091CF010E942E0890E080E06996F1
:1008A0000FB6F894DEBF0FBECDBFDF91CF911F9181
:1008B0000F91FF90EF90DF90CF90BF90AF909F90FF
:1008C0008F907F906F905F904F903F902F90089502
:1008D0006091D3017091D40190E080E00E941006F5
:1008E0001B012C0120E030E04AE755E40E94C706D6
:1008F0006B017C0120E030E040E85FE30E946A0584
:1009000087FDCDC020E03FEF4FE757E4C701B601B8
:100910000E94C20618160CF0BAC020E030E040E297
:1009200051E4C201B1010E94C7060E94E1056115B0
:10093000710509F0A6C08091D0019091D101E0919C
:100940001001F0911101E80FF91F2FE420839F930C
:100950008F9384EA91E09F938F930E94BE088091C9
:10096000100190911101E091D001F091D101E80FB7
:10097000F91F2DE2208320910E0130910F01820F8B
:10098000931F90931101809310010F900F900F907F
:100990000F908A32910519F0019609F06BCFF89407
:1009A00080E1E8E1F1E0DE01119601900D928A9577
:1009B000E1F788E0E8E2F1E0DE01519601900D9266
:1009C0008A95E1F76E01F1E1CF0ED11CCE010196BF
:1009D0007C014601E814F90409F064C0E0900E01BE
:1009E000F0900F01E091CE01F091CF0121E0E216ED
:1009F000F10409F069C0C080D180DF92CF92FF92EC
:100A0000EF9289EA91E09F938F930E94BE080E9423
:100A10006800C601B3010E944807962E882E0F90E9
:100A20000F900F900F900F900F9098EEC92E93E0BB
:100A3000D92E5C988CE80E94530081EF0E945300ED
:100A40005C9AC8010197F1F76E2D81E00E940C02BB
:100A5000C8010197F1F7692D82E00E940C02C801DC
:100A60000197F1F7682D83E00E940C02C8010197FD
:100A7000F1F7F1E0CF1AD108E1F61092D201998C8A
:100A8000F9CEC5010197F1F76150710950CFC70147
:100A9000B6010E94E105CB010197F1F74CCF61E06F
:100AA00070E0F9CF539AF601219131916F01F7016E
:100AB00061917191819191917F01032E000C440B02
:100AC000550B0E94710086CFC280D38082E0E82E51
:100AD000F12C93CF0E944D0608F481E008950E9406
:100AE00083050C9488060E94810658F00E947A06BD
:100AF00040F029F45F3F29F00C94710651110C94D9
:100B0000BC060C9477060E94990668F39923B1F30A
:100B1000552391F3951B550BBB27AA276217730723
:100B2000840738F09F5F5F4F220F331F441FAA1FB7
:100B3000A9F335D00E2E3AF0E0E832D09150504073
:100B4000E695001CCAF72BD0FE2F29D0660F771F21
:100B5000881FBB1F261737074807AB07B0E809F007
:100B6000BB0B802DBF01FF2793585F4F3AF09E3F8C
:100B7000510578F00C9471060C94BC065F3FE4F3C9
:100B8000983ED4F3869577956795B795F7959F5FCF
:100B9000C9F7880F911D9695879597F90895E1E01B
:100BA000660F771F881FBB1F621773078407BA077A
:100BB00020F0621B730B840BBA0BEE1F88F7E095D5
:100BC00008950E94A10688F09F5798F0B92F9927A1
:100BD000B751B0F0E1F0660F771F881F991F1AF028
:100BE000BA95C9F714C0B13091F00E94BB06B1E0CC
:100BF00008950C94BB06672F782F8827B85F39F0CB
:100C0000B93FCCF3869577956795B395D9F73EF4C0
:100C100090958095709561957F4F8F4F9F4F089568
:100C2000E89409C097FB3EF4909580957095619586
:100C30007F4F8F4F9F4F9923A9F0F92F96E9BB273C
:100C40009395F695879577956795B795F111F8CFB8
:100C5000FAF4BB0F11F460FF1BC06F5F7F4F8F4F23
:100C60009F4F16C0882311F096E911C0772321F019
:100C70009EE8872F762F05C0662371F096E8862FB1
:100C800070E060E02AF09A95660F771F881FDAF708
:100C9000880F9695879597F90895990F0008550F35
:100CA000AA0BE0E8FEEF16161706E807F907C0F0F2
:100CB00012161306E407F50798F0621B730B840BFA
:100CC000950B39F40A2661F0232B242B252B21F4D4
:100CD00008950A2609F4A140A6958FEF811D811D74
:100CE000089597F99F6780E870E060E008959FEFAE
:100CF00080EC089500240A941616170618060906B3
:100D0000089500240A941216130614060506089581
:100D1000092E0394000C11F4882352F0BB0F40F409
:100D2000BF2B11F460FF04C06F5F7F4F8F4F9F4F49
:100D3000089557FD9058440F551F59F05F3F71F0CB
:100D40004795880F97FB991F61F09F3F79F0879532
:100D50000895121613061406551FF2CF4695F1DFBB
:100D600008C0161617061806991FF1CF869571054B
:100D7000610508940895E894BB2766277727CB017F
:100D800097F908950E944D0608F48FEF08950E9488
:100D9000DA060C9488060E947A0638F00E948106D2
:100DA00020F0952311F00C9471060C947706112411
:100DB0000C94BC060E94990670F3959FC1F3950FA1
:100DC00050E0551F629FF001729FBB27F00DB11DCF
:100DD000639FAA27F00DB11DAA1F649F6627B00D5F
:100DE000A11D661F829F2227B00DA11D621F739F48
:100DF000B00DA11D621F839FA00D611D221F749F56
:100E00003327A00D611D231F849F600D211D822F9C
:100E1000762F6A2F11249F5750409AF0F1F08823C3
:100E20004AF0EE0FFF1FBB1F661F771F881F9150F0
:100E30005040A9F79E3F510580F00C9471060C9428
:100E4000BC065F3FE4F3983ED4F3869577956795AB
:100E5000B795F795E7959F5FC1F7FE2B880F911D1A
:100E60009695879597F90895AA1BBB1B51E107C07A
:100E7000AA1FBB1FA617B70710F0A61BB70B881F2A
:100E8000991F5A95A9F780959095BC01CD010895B9
:100E900097FB072E16F4009407D077FD09D00E9427
:100EA000340707FC05D03EF4909581959F4F089537
:100EB000709561957F4F08950E946707A59F900DDB
:100EC000B49F900DA49F800D911D11240895A29FA1
:100ED000B001B39FC001A39F700D811D1124911D0E
:100EE000B29F700D811D1124911D08950F931F93C2
:100EF000CF93DF93869F8001879F100D969F100DE3
:100F00001124C8010E949207EC01009729F0A80162
:100F100070E060E00E94B708CE01DF91CF911F9191
:100F20000F9108950F931F93CF93DF938230910514
:100F300010F482E090E0E091DD01F091DE0130E01C
:100F400020E0B0E0A0E0309799F42115310509F4D4
:100F50004AC0281B390B24303105D8F58A819B8182
:100F60006115710589F1FB0193838283FE0111C034
:100F7000408151810281138148175907E0F04817D9
:100F8000590799F4109761F012960C9312971396E3
:100F90001C933296CF01DF91CF911F910F9108954D
:100FA0000093DD011093DE01F4CF2115310551F0DE
:100FB0004217530738F0A901DB019A01BD01DF0197
:100FC000F801C1CFEF01F9CF9093DE018093DD01ED
:100FD000CDCFFE01E20FF31F81939193225031098F
:100FE00039832883D7CF2091DB013091DC01232B7B
:100FF00041F420911401309115013093DC012093CC
:10100000DB0120911201309113012115310541F4CA
:101010002DB73EB74091160150911701241B350B97
:10102000E091DB01F091DC01E217F307A0F42E1B45
:101030003F0B2817390778F0AC014E5F5F4F24173C
:10104000350748F04E0F5F1F5093DC014093DB01E2
:10105000819391939FCFF0E0E0E09CCFCF93DF931B
:101060000097E9F0FC01329713821282A091DD0112
:10107000B091DE01ED0130E020E01097A1F4208175
:101080003181820F931F2091DB013091DC01281701
:10109000390709F061C0F093DC01E093DB01DF91D7
:1010A000CF910895EA01CE17DF07E8F54A815B8109
:1010B0009E0141155105B1F7E901FB83EA8349918E
:1010C0005991C40FD51FEC17FD0761F48081918100
:1010D0000296840F951FE901998388838281938109
:1010E0009B838A83F0E0E0E012968D919C911397A8
:1010F0000097B9F52D913C911197CD010296820F81
:10110000931F2091DB013091DC012817390739F654
:10111000309751F51092DE011092DD01B093DC01A1
:10112000A093DB01BCCFD383C28340815181840F64
:10113000951FC817D90761F44E5F5F4F8881998169
:10114000480F591F518340838A819B8193838283F7
:101150002115310509F0B0CFF093DE01E093DD01F8
:101160009ECFFD01DC01C0CF13821282D7CFDC01FC
:1011700001C06D9341505040E0F70895B0E0A0E009
:10118000E4ECF8E00C948D0BAE014B5F5F4FFA017D
:1011900061917191AF018091D7019091D8010E9426
:1011A000FF08E2E00C94A90B0F931F93CF93DF93FA
:1011B000E091D701F091D8012381EC0110E000E02B
:1011C00021FD08C00FEF1FEF14C00995892B11F006
:1011D0000FEF1FEF89916091D7017091D801DB016A
:1011E0001896ED91FC918111F0CF8AE00995892B39
:1011F00049F7C801DF91CF911F910F910895ABE09E
:10120000B0E0E5E0F9E00C947D0B7C013B018A0144
:10121000FC0117821682838181FFC8C1CE0101962D
:101220005C01F7019381F30193FD859193FF819117
:101230003F01882309F453C1853239F493FD859128
:1012400093FF81913F01853229F4B70190E00E941C
:10125000EF0AE7CF912C212C312CFFE1F31538F068
:101260008B3211F190F4803209F1833229F137FC8D
:101270003CC020ED280F2A3050F536FE20C08AE011
:10128000989E200D1124922E06C08D3291F080334D
:1012900071F7689430F8F30193FD859193FF819184
:1012A0003F018111DACF21C0689431F8689432F897
:1012B000F2CF689433F8EFCF689434F8ECCFEAE0DB
:1012C0002E9E200D1124222E689435F8E4CF8E3204
:1012D00029F436FC04C1689436F8DDCF8C3619F455
:1012E000689437F8D8CF8836B1F2982F9F7D9554FF
:1012F0009330E0F08336A1F18337C1F1833509F0F3
:1013000063C02801F2E04F0E511CF801C080D1806B
:10131000692D70E036FC02C06FEF7FEFC6010E94BE
:10132000D90A4C01689437F882010AC00C5F1F4F3C
:10133000FFE3F98388248394912C6501E89437F8BE
:1013400033FE2DC0522C8114910471F5552009F4FF
:1013500068CFB70180E290E00E94EF0A5A94F6CF7E
:10136000F801808189830E5F1F4FE4CF2801F2E0EE
:101370004F0E511CF801C080D180692D70E036FC01
:1013800002C06FEF7FEFC6010E94E40A4C018201A8
:10139000D5CFB70180E290E00E94EF0A2A9428148A
:1013A000190409F0B0F7CECFF60137FC859137FE6E
:1013B00081916F01B70190E00E94EF0A51105A9499
:1013C000F1E08F1A9108BFCF843619F0893609F001
:1013D00077C0F80137FE6BC0608171818281938193
:1013E0000C5F1F4FF32DFF763F2E97FF09C090959E
:1013F0008095709561957F4F8F4F9F4F689437F818
:101400002AE030E0A5010E941F0BC82ECA188C2CC0
:10141000432C36FE0CC0E89440F8C91440F434FE66
:1014200005C032FC03C0F32DFE7E4F2E892C44FEF6
:1014300095C0FE01EC0DF11D8081803309F087C05D
:10144000242D297E422E842D8870582E43FC95C071
:1014500040FE8FC09C2C821418F42C0C922C9818EF
:1014600044FE91C0B70180E390E00E94EF0A42FE83
:1014700009C088E790E041FE02C088E590E0B7012E
:101480000E94EF0AC91408F48AC0CA94D12C9FEFB5
:10149000C91AD90ACA0CDB1CF60182916F01B70187
:1014A00090E00E94EF0AAC14BD04B1F74FCF608109
:1014B0007181072E000C880B990B0E5F1F4F92CF86
:1014C000D32CE894D4F82AE030E0853739F1232D85
:1014D000297FD22E8F3601F148F48835A9F0F70123
:1014E000868197812B96E2E10C94990B803749F025
:1014F0008837A9F7D4FE02C06894D2F820E130E022
:101500000DC06894D4F8F6CF34FE03C0822F8660F5
:10151000D82E20E132E002C028E030E0F801D7FE0A
:101520000FC060817181828193810C5F1F4FA50183
:101530000E941F0BC82ECA183D2CE89437F867CFBD
:101540006081718190E080E00E5F1F4FF0CF42FC20
:1015500002C0839478CF8394839475CF842D86784A
:1015600009F471CFF6CFB70180E290E00E94EF0A54
:1015700083948214C0F3512C73CF522C58188214C8
:1015800008F46ECFF8CF842D867809F47BCF8BE2F8
:1015900041FE80E247FC8DE2B70190E071CFB701D8
:1015A00080E390E00E94EF0A9A946CCF8FEF9FEF58
:1015B00099CFFC010590615070400110D8F78095DB
:1015C00090958E0F9F1F0895FC016150704001900F
:1015D0000110D8F7809590958E0F9F1F08950F9357
:1015E0001F93CF93DF93182F092FEB018B8181FD80
:1015F00009C01FEF0FEF812F902FDF91CF911F9127
:101600000F91089582FF14C02E813F818C819D81AE
:10161000281739073CF4E881F981CF0101969983B5
:10162000888310838E819F8101969F838E83E3CF71
:10163000E885F985812F0995892BA1F3DACFFA0185
:10164000AA27283051F1203181F1E8946F936E7F01
:101650006E5F7F4F8F4F9F4FAF4FB1E03ED0B4E0F2
:101660003CD0670F781F891F9A1FA11D680F791F33
:101670008A1F911DA11D6A0F711D811D911DA11D44
:1016800020D009F468943F912AE0269F1124301954
:10169000305D3193DEF6CF010895462F4770405DEF
:1016A0004193B3E00FD0C9F7F6CF462F4F70405D9E
:1016B0004A3318F0495D31FD4052419302D0A9F7F9
:1016C000EACFB4E0A6959795879577956795BA95F3
:1016D000C9F700976105710508959B01AC010A2EB9
:1016E00006945795479537952795BA95C9F7620F90
:1016F000731F841F951FA01D08952F923F924F9234
:101700005F926F927F928F929F92AF92BF92CF9291
:10171000DF92EF92FF920F931F93CF93DF93CDB79A
:10172000DEB7CA1BDB0B0FB6F894DEBF0FBECDBF12
:1017300009942A88398848885F846E847D848C84E3
:101740009B84AA84B984C884DF80EE80FD800C81EC
:101750001B81AA81B981CE0FD11D0FB6F894DEBFCF
:0C1760000FBECDBFED010895F894FFCF3F
:10176C000000000300000000200200000000010047
:10177C0019000000DF0180005CFF434400005C4462
:10178C0048F1764400D082442C012C012C01F40148
:10179C005CFF434400005C4448F176442C012C016E
:1017AC00BC02C0F9A4B0999282F88090F1F2F4F8DE
:1017BC004D656D6F727920616C6C6F636174696FCC
:1017CC006E206661696C656421000A43686F6F73F3
:1017DC006520746865207370656564206F6620747D
:1017EC0068652062616C6C20616E64207072657338
:1017FC007320317374206F7220326E6420627574A2
:10180C00746F6E000D202573000A200A20506C6145
:10181C0079657220256420776F6E20776974682053
:0E182C00256420706F696E7473000A0A000054
:00000001FF
